:020000040800F2
:10000000005000203F0500083905000839050008A8
:10001000390500083905000839050008000000000E
:1000200000000000000000000000000005050008BE
:100030000000000000000000DD0400089904000832
:100040003905000839050008390500083905000898
:100050003905000839050008390500083905000888
:100060003905000839050008390500083905000878
:100070003905000839050008390500083905000868
:100080003905000839050008390500083905000858
:100090003905000839050008390500083905000848
:1000A0003905000839050008390500083905000838
:1000B0003905000839050008390500083905000828
:1000C0003905000839050008390500083905000818
:1000D0003905000839050008390500083905000808
:0C00E00039050008390500083905000842
:1000EC0080B483B000AF78607B68214A934231D0F2
:1000FC001F4A934235D81F4A934224D01D4A93423B
:10010C002FD81D4A934217D01B4A934229D81B4A19
:10011C00934203D01A4A934207D022E0194B9B69B1
:10012C00184A43F0040393611CE0164B9B69154A73
:10013C0043F00803936115E0124B9B69114A43F09D
:10014C00100393610EE00F4B9B690E4A43F02003A2
:10015C00936107E00B4B9B690A4A43F040039361A0
:10016C0000E000BF00BF0C37BD4680BC704700BF2D
:10017C00001801400014014000100140000801402B
:10018C00000C01400010024080B483B000AF7860D6
:10019C000B46FB701346BB70FB78072B15D87B689E
:1001AC001B68FA7892000F2101FA02F2D2431A402E
:1001BC007B681A607B681B68B978FA78920001FA40
:1001CC0002F21A437B681A6016E07B685B68FA7867
:1001DC00083A92000F2101FA02F2D2431A407B68CE
:1001EC005A607B685B68B978FA78083A920001FA31
:1001FC0002F21A437B685A6000BF0C37BD4680BCC4
:10020C00704780B483B000AF78600B46FB70134628
:10021C00BB70BB78002B07D0FB78012202FA03F3EA
:10022C001A467B681A6106E0FB78012202FA03F396
:10023C001A467B685A6100BF0C37BD4680BC7047BC
:10024C0080B483B000AF78600B46FB707B689A6813
:10025C00FB7822FA03F3DBB203F00103DBB218469E
:10026C000C37BD4680BC704780B483B000AF78605B
:10027C000B46FB707B68DB68FA78012101FA02F20D
:10028C005A407B68DA6000BF0C37BD4680BC7047B3
:10029C0080B483B000AF786000BF7B685A1E7A6070
:1002AC00002BFAD100BF00BF0C37BD4680BC704795
:1002BC0080B500AF02210348FFF7D6FF0248FFF7D5
:1002CC00E7FFF7E700080140404B4C0080B500AF5A
:1002DC0003210348FFF7C8FF0248FFF7D9FFF7E7F0
:1002EC000008014020A1070080B582B000AF17487C
:1002FC00FFF7F6FE0B2202211448FFF745FF4FF4DF
:10030C007A7207214FF0804000F040F902214FF043
:10031C00804000F0E6F94FF0804000F07BF90023BC
:10032C00FB800EE0FB881A4602214FF0804000F063
:10033C003FFA32214FF0804000F090F9FB880133F6
:10034C00FB80FB88B3F57A7FECD9E8E70008014025
:10035C0080B487B000AFF860B9607A603B603B68EE
:10036C009B007A6813447B617B69043B7B617B69EE
:10037C004FF080721A607B69043B7B61BA687B69C1
:10038C001A607B69043B7B617B6900221A607B6984
:10039C00043B7B617B694FF012321A607B69043B32
:1003AC007B617B694FF003321A607B69043B7B6194
:1003BC007B694FF002321A607B69043B7B617B697D
:1003CC004FF001321A607B69043B7B617B69002230
:1003DC001A607B69043B7B617B694FF011321A60B8
:1003EC007B69043B7B617B694FF010321A607B693F
:1003FC00043B7B617B694FF009321A607B69043BDB
:10040C007B617B694FF008321A607B69043B7B612E
:10041C007B694FF007321A607B69043B7B617B6917
:10042C004FF006321A607B69043B7B617B694FF0AD
:10043C0005321A607B69043B7B617B694FF00432A7
:10044C001A60FB687A691A6000BF1C37BD4680BC15
:10045C00704780B483B000AF7860094A7B68013B79
:10046C001360084B00221A60074B1B68064A43F0C6
:10047C000703136000BF0C37BD4680BC704700BF3C
:10048C0014E000E018E000E010E000E080B400AF01
:10049C000A4B1B680A4A934203D10A4B0A4A1A6058
:1004AC0002E0084B064A1A60084B1B68074A43F0E7
:1004BC008053136000BFBD4680BC704728030020EA
:1004CC00200300202C0300202403002004ED00E076
:1004DC0072B6EFF3098013490A6812B120E9F00FE4
:1004EC001060114B1C680C602068B0E8F00F80F3B2
:1004FC00098862B6704700BF0A4801680868B0E80E
:10050C00F00F80F309884EF0040E62B6704700BFFE
:10051C0080B500AF0248FFF79CFF00DFFEE700BF8D
:10052C0040190100280300202C03002080B400AFE8
:10053C00FEE780B582B000AF0F4B7B600F4B3B608A
:10054C0007E07A68131D7B603B68191D39601268DF
:10055C001A603B680A4A9342F3D30A4B3B6004E0AF
:10056C003B681A1D3A6000221A603B68064A9342A7
:10057C00F6D3FFF7B9FEFEE71808000800000020CC
:10058C0000000020000000203003002080B483B065
:10059C0000AF78600B467B8013463B807B681A4A21
:1005AC00934209D0184A93421BD8B3F1804F0AD01A
:1005BC00164A93420ED014E0154B9B69144A43F42F
:1005CC00006393610EE0124BDB69114A43F00103A7
:1005DC00D36107E00E4BDB690D4A43F00203D36194
:1005EC0000E000BF3A887B68DA627A887B689A629E
:1005FC007B685B6943F001027B685A6100BF0C3772
:10060C00BD4680BC704700BF002C01400004004078
:10061C000010024080B483B000AF78607B681B6828
:10062C0043F001027B681A6000BF0C37BD4680BCEA
:10063C00704780B483B000AF78600B467B807B68DA
:10064C0000225A6200BF7B685A6A7B889A42FAD3AE
:10065C0000BF00BF0C37BD4680BC704780B584B06E
:10066C0000AF78600B467B800023FB8107E04FF4E2
:10067C007A717868FFF7DDFFFB890133FB81FA891A
:10068C007B889A42F3D300BF00BF1037BD4680BDB4
:10069C0080B483B000AF78607B681B6823F00102E4
:1006AC007B681A6000BF0C37BD4680BC704780B4B5
:1006BC0083B000AF78607B685B6A9BB218460C37DE
:1006CC00BD4680BC704780B483B000AF78600B46E9
:1006DC007B807A887B685A6200BF0C37BD4680BC31
:1006EC00704780B483B000AF78600B46FB70FB782A
:1006FC00013B032B56D801A252F823F0190700082E
:10070C003F070008650700088B0700087B689B699A
:10071C0023F0FF027B689A617B689B6943F0680257
:10072C007B689A617B681B6A43F001027B681A62E2
:10073C0039E07B689B6923F0FF027B689A617B68D8
:10074C009B6943F4D0427B689A617B681B6A43F0D7
:10075C0010027B681A6226E07B68DB6923F0FF02DB
:10076C007B68DA617B68DB6943F068027B68DA617D
:10077C007B681B6A43F480727B681A6213E07B68A7
:10078C00DB6923F0FF027B68DA617B68DB6943F489
:10079C00D0427B68DA617B681B6A43F480527B68C9
:1007AC001A6200E000BF00BF0C37BD4680BC70472A
:1007BC0080B483B000AF78600B46FB7013463B806F
:1007CC00FB78013B032B1BD801A252F823F000BF8E
:1007DC00ED070008F5070008FD07000805080008EC
:1007EC003A887B685A630CE03A887B689A6308E025
:1007FC003A887B68DA6304E03A887B681A6400E024
:0C080C0000BF00BF0C37BD4680BC704729
:040000050800053FAB
:00000001FF
