:020000040800F2
:1000000000500020C7020008C1020008C102000819
:10001000C1020008C1020008C1020008000000007F
:10002000000000000000000000000000C102000805
:100030000000000000000000C1020008C10200082A
:10004000C1020008C1020008C1020008C102000884
:10005000C1020008C1020008C1020008C102000874
:10006000C1020008C1020008C1020008C102000864
:10007000C1020008C1020008C1020008C102000854
:10008000C1020008C1020008C1020008C102000844
:10009000C1020008C1020008C1020008C102000834
:1000A000C1020008C1020008C1020008C102000824
:1000B000C1020008C1020008C1020008C102000814
:1000C000C1020008C1020008C1020008C102000804
:1000D000C1020008C1020008C1020008C1020008F4
:0C00E000C1020008C1020008C1020008B3
:1000EC0080B483B000AF78607B68214A934231D0F2
:1000FC001F4A934235D81F4A934224D01D4A93423B
:10010C002FD81D4A934217D01B4A934229D81B4A19
:10011C00934203D01A4A934207D022E0194B9B69B1
:10012C00184A43F0040393611CE0164B9B69154A73
:10013C0043F00803936115E0124B9B69114A43F09D
:10014C00100393610EE00F4B9B690E4A43F02003A2
:10015C00936107E00B4B9B690A4A43F040039361A0
:10016C0000E000BF00BF0C37BD4680BC704700BF2D
:10017C00001801400014014000100140000801402B
:10018C00000C01400010024080B483B000AF7860D6
:10019C000B46FB701346BB70FB78072B15D87B689E
:1001AC001B68FA7892000F2101FA02F2D2431A402E
:1001BC007B681A607B681B68B978FA78920001FA40
:1001CC0002F21A437B681A6016E07B685B68FA7867
:1001DC00083A92000F2101FA02F2D2431A407B68CE
:1001EC005A607B685B68B978FA78083A920001FA31
:1001FC0002F21A437B685A6000BF0C37BD4680BCC4
:10020C00704780B483B000AF78600B46FB70134628
:10021C00BB70BB78002B07D0FB78012202FA03F3EA
:10022C001A467B681A6106E0FB78012202FA03F396
:10023C001A467B685A6100BF0C37BD4680BC7047BC
:10024C0080B483B000AF78600B46FB707B68DB68D2
:10025C00FA78012101FA02F25A407B68DA6000BF99
:10026C000C37BD4680BC704780B483B000AF78605B
:10027C0000BF7B685A1E7A60002BFAD100BF00BF0A
:10028C000C37BD4680BC704780B500AF0748FFF700
:10029C0027FF032202210548FFF776FF02210348BE
:1002AC00FFF7CEFF0248FFF7DFFFF7E7000801403A
:1002BC0020A1070080B400AFFEE780B582B000AF8C
:1002CC000F4B7B600F4B3B6007E07A68131D7B6024
:1002DC003B68191D396012681A603B680A4A9342E0
:1002EC00F3D30A4B3B6004E03B681A1D3A600022D2
:1002FC001A603B68064A9342F6D3FFF7C5FFFEE748
:10030C002003000800000020000000200000002056
:04031C0000000020BD
:04000005080002C726
:00000001FF
