:020000040800F2
:1000000000500020730100086D0100086D01000818
:100010006D0100086D0100086D010008000000007E
:100020000000000000000000000000006D0100085A
:1000300000000000000000006D0100086D010008D4
:100040006D0100086D0100086D0100086D010008D8
:100050006D0100086D0100086D0100086D010008C8
:100060006D0100086D0100086D0100086D010008B8
:100070006D0100086D0100086D0100086D010008A8
:100080006D0100086D0100086D0100086D01000898
:100090006D0100086D0100086D0100086D01000888
:1000A0006D0100086D0100086D0100086D01000878
:1000B0006D0100086D0100086D0100086D01000868
:1000C0006D0100086D0100086D0100086D01000858
:1000D0006D0100086D0100086D0100086D01000848
:0C00E0006D0100086D0100086D010008B2
:1000EC0080B483B000AF786000BF7B685A1E7A6022
:1000FC00002BFAD100BF00BF0C37BD4680BC704747
:10010C0080B500AF134B1B68124A43F01003136009
:10011C00114B1B68104A23F4700313600E4B1B68C1
:10012C000D4A43F4001313600C4B1B680B4A43F449
:10013C00005313604CF25030FFF7D2FF074B1B6893
:10014C00064A23F4005313604CF25030FFF7C8FFFB
:10015C00EAE700BF18100240041001400C100140E7
:10016C0080B400AFFEE780B582B000AF0F4B7B6070
:10017C000F4B3B6007E07A68131D7B603B68191DD1
:10018C00396012681A603B680A4A9342F3D30A4BEF
:10019C003B6004E03B681A1D3A6000221A603B6821
:1001AC00064A9342F6D3FFF7ABFFFEE7CC010008FB
:1001BC0000000020000000200000002000000020B3
:04000005080001737B
:00000001FF
